{
  "_format": "hh-sol-artifact-1",
  "contractName": "Propcorn",
  "sourceName": "contracts/Propcorn.sol",
  "abi": [
    {
      "inputs": [],
      "stateMutability": "nonpayable",
      "type": "constructor"
    },
    {
      "inputs": [
        {
          "internalType": "address",
          "name": "target",
          "type": "address"
        }
      ],
      "name": "AddressEmptyCode",
      "type": "error"
    },
    {
      "inputs": [
        {
          "internalType": "address",
          "name": "implementation",
          "type": "address"
        }
      ],
      "name": "ERC1967InvalidImplementation",
      "type": "error"
    },
    {
      "inputs": [],
      "name": "ERC1967NonPayable",
      "type": "error"
    },
    {
      "inputs": [],
      "name": "FailedCall",
      "type": "error"
    },
    {
      "inputs": [],
      "name": "FundsLocked",
      "type": "error"
    },
    {
      "inputs": [],
      "name": "InvalidFee",
      "type": "error"
    },
    {
      "inputs": [],
      "name": "InvalidInitialization",
      "type": "error"
    },
    {
      "inputs": [],
      "name": "InvalidOwner",
      "type": "error"
    },
    {
      "inputs": [],
      "name": "NoFundsToReturn",
      "type": "error"
    },
    {
      "inputs": [],
      "name": "NonexistentProposal",
      "type": "error"
    },
    {
      "inputs": [],
      "name": "NotInitializing",
      "type": "error"
    },
    {
      "inputs": [
        {
          "internalType": "address",
          "name": "owner",
          "type": "address"
        }
      ],
      "name": "OwnableInvalidOwner",
      "type": "error"
    },
    {
      "inputs": [
        {
          "internalType": "address",
          "name": "account",
          "type": "address"
        }
      ],
      "name": "OwnableUnauthorizedAccount",
      "type": "error"
    },
    {
      "inputs": [],
      "name": "ProposalFunding",
      "type": "error"
    },
    {
      "inputs": [],
      "name": "ProposalPaid",
      "type": "error"
    },
    {
      "inputs": [],
      "name": "UUPSUnauthorizedCallContext",
      "type": "error"
    },
    {
      "inputs": [
        {
          "internalType": "bytes32",
          "name": "slot",
          "type": "bytes32"
        }
      ],
      "name": "UUPSUnsupportedProxiableUUID",
      "type": "error"
    },
    {
      "anonymous": false,
      "inputs": [
        {
          "indexed": true,
          "internalType": "address",
          "name": "from",
          "type": "address"
        },
        {
          "indexed": false,
          "internalType": "uint256",
          "name": "index",
          "type": "uint256"
        },
        {
          "indexed": false,
          "internalType": "uint256",
          "name": "amount",
          "type": "uint256"
        },
        {
          "indexed": false,
          "internalType": "address",
          "name": "to",
          "type": "address"
        }
      ],
      "name": "FundsWithdrawn",
      "type": "event"
    },
    {
      "anonymous": false,
      "inputs": [
        {
          "indexed": false,
          "internalType": "uint64",
          "name": "version",
          "type": "uint64"
        }
      ],
      "name": "Initialized",
      "type": "event"
    },
    {
      "anonymous": false,
      "inputs": [
        {
          "indexed": true,
          "internalType": "address",
          "name": "previousOwner",
          "type": "address"
        },
        {
          "indexed": true,
          "internalType": "address",
          "name": "newOwner",
          "type": "address"
        }
      ],
      "name": "OwnershipTransferred",
      "type": "event"
    },
    {
      "anonymous": false,
      "inputs": [
        {
          "indexed": true,
          "internalType": "address",
          "name": "from",
          "type": "address"
        },
        {
          "indexed": false,
          "internalType": "uint256",
          "name": "index",
          "type": "uint256"
        }
      ],
      "name": "ProposalCancelled",
      "type": "event"
    },
    {
      "anonymous": false,
      "inputs": [
        {
          "indexed": true,
          "internalType": "address",
          "name": "from",
          "type": "address"
        },
        {
          "indexed": false,
          "internalType": "uint256",
          "name": "index",
          "type": "uint256"
        },
        {
          "indexed": false,
          "internalType": "string",
          "name": "url",
          "type": "string"
        },
        {
          "indexed": false,
          "internalType": "uint256",
          "name": "secondsToUnlock",
          "type": "uint256"
        },
        {
          "indexed": false,
          "internalType": "uint256",
          "name": "minAmountRequested",
          "type": "uint256"
        },
        {
          "indexed": false,
          "internalType": "uint256",
          "name": "feeBasisPoints",
          "type": "uint256"
        }
      ],
      "name": "ProposalCreated",
      "type": "event"
    },
    {
      "anonymous": false,
      "inputs": [
        {
          "indexed": true,
          "internalType": "address",
          "name": "from",
          "type": "address"
        },
        {
          "indexed": true,
          "internalType": "address",
          "name": "account",
          "type": "address"
        },
        {
          "indexed": false,
          "internalType": "uint256",
          "name": "index",
          "type": "uint256"
        },
        {
          "indexed": false,
          "internalType": "uint256",
          "name": "amount",
          "type": "uint256"
        }
      ],
      "name": "ProposalDefunded",
      "type": "event"
    },
    {
      "anonymous": false,
      "inputs": [
        {
          "indexed": true,
          "internalType": "address",
          "name": "from",
          "type": "address"
        },
        {
          "indexed": true,
          "internalType": "address",
          "name": "account",
          "type": "address"
        },
        {
          "indexed": false,
          "internalType": "uint256",
          "name": "index",
          "type": "uint256"
        },
        {
          "indexed": false,
          "internalType": "uint256",
          "name": "amount",
          "type": "uint256"
        }
      ],
      "name": "ProposalFunded",
      "type": "event"
    },
    {
      "anonymous": false,
      "inputs": [
        {
          "indexed": true,
          "internalType": "address",
          "name": "implementation",
          "type": "address"
        }
      ],
      "name": "Upgraded",
      "type": "event"
    },
    {
      "inputs": [],
      "name": "UPGRADE_INTERFACE_VERSION",
      "outputs": [
        {
          "internalType": "string",
          "name": "",
          "type": "string"
        }
      ],
      "stateMutability": "view",
      "type": "function"
    },
    {
      "inputs": [
        {
          "internalType": "address",
          "name": "account",
          "type": "address"
        },
        {
          "internalType": "uint256",
          "name": "index",
          "type": "uint256"
        }
      ],
      "name": "cancelProposal",
      "outputs": [],
      "stateMutability": "nonpayable",
      "type": "function"
    },
    {
      "inputs": [
        {
          "internalType": "string",
          "name": "url",
          "type": "string"
        },
        {
          "internalType": "uint256",
          "name": "secondsToUnlock",
          "type": "uint256"
        },
        {
          "internalType": "uint256",
          "name": "minAmountRequested",
          "type": "uint256"
        },
        {
          "internalType": "uint256",
          "name": "feeBasisPoints",
          "type": "uint256"
        }
      ],
      "name": "createProposal",
      "outputs": [],
      "stateMutability": "nonpayable",
      "type": "function"
    },
    {
      "inputs": [
        {
          "internalType": "address",
          "name": "account",
          "type": "address"
        },
        {
          "internalType": "uint256",
          "name": "index",
          "type": "uint256"
        }
      ],
      "name": "defundProposal",
      "outputs": [],
      "stateMutability": "nonpayable",
      "type": "function"
    },
    {
      "inputs": [
        {
          "internalType": "address",
          "name": "account",
          "type": "address"
        },
        {
          "internalType": "uint256",
          "name": "index",
          "type": "uint256"
        }
      ],
      "name": "fundProposal",
      "outputs": [],
      "stateMutability": "payable",
      "type": "function"
    },
    {
      "inputs": [
        {
          "components": [
            {
              "internalType": "string",
              "name": "url",
              "type": "string"
            },
            {
              "internalType": "uint256",
              "name": "secondsToUnlock",
              "type": "uint256"
            },
            {
              "internalType": "uint256",
              "name": "fundingCompletedAt",
              "type": "uint256"
            },
            {
              "internalType": "uint256",
              "name": "minAmountRequested",
              "type": "uint256"
            },
            {
              "internalType": "uint256",
              "name": "balance",
              "type": "uint256"
            },
            {
              "internalType": "uint256",
              "name": "feeBasisPoints",
              "type": "uint256"
            },
            {
              "internalType": "enum Propcorn.ProposalStatus",
              "name": "status",
              "type": "uint8"
            }
          ],
          "internalType": "struct Propcorn.Proposal",
          "name": "proposal",
          "type": "tuple"
        }
      ],
      "name": "fundsUnlockedAt",
      "outputs": [
        {
          "internalType": "uint256",
          "name": "",
          "type": "uint256"
        }
      ],
      "stateMutability": "pure",
      "type": "function"
    },
    {
      "inputs": [
        {
          "internalType": "address",
          "name": "account",
          "type": "address"
        },
        {
          "internalType": "uint256",
          "name": "index",
          "type": "uint256"
        }
      ],
      "name": "getProposalByAccount",
      "outputs": [
        {
          "components": [
            {
              "internalType": "string",
              "name": "url",
              "type": "string"
            },
            {
              "internalType": "uint256",
              "name": "secondsToUnlock",
              "type": "uint256"
            },
            {
              "internalType": "uint256",
              "name": "fundingCompletedAt",
              "type": "uint256"
            },
            {
              "internalType": "uint256",
              "name": "minAmountRequested",
              "type": "uint256"
            },
            {
              "internalType": "uint256",
              "name": "balance",
              "type": "uint256"
            },
            {
              "internalType": "uint256",
              "name": "feeBasisPoints",
              "type": "uint256"
            },
            {
              "internalType": "enum Propcorn.ProposalStatus",
              "name": "status",
              "type": "uint8"
            }
          ],
          "internalType": "struct Propcorn.Proposal",
          "name": "",
          "type": "tuple"
        }
      ],
      "stateMutability": "view",
      "type": "function"
    },
    {
      "inputs": [
        {
          "internalType": "address payable",
          "name": "protocolFeeReceiver",
          "type": "address"
        }
      ],
      "name": "initialize",
      "outputs": [],
      "stateMutability": "nonpayable",
      "type": "function"
    },
    {
      "inputs": [],
      "name": "owner",
      "outputs": [
        {
          "internalType": "address",
          "name": "",
          "type": "address"
        }
      ],
      "stateMutability": "view",
      "type": "function"
    },
    {
      "inputs": [],
      "name": "proxiableUUID",
      "outputs": [
        {
          "internalType": "bytes32",
          "name": "",
          "type": "bytes32"
        }
      ],
      "stateMutability": "view",
      "type": "function"
    },
    {
      "inputs": [],
      "name": "renounceOwnership",
      "outputs": [],
      "stateMutability": "nonpayable",
      "type": "function"
    },
    {
      "inputs": [
        {
          "internalType": "address",
          "name": "newOwner",
          "type": "address"
        }
      ],
      "name": "transferOwnership",
      "outputs": [],
      "stateMutability": "nonpayable",
      "type": "function"
    },
    {
      "inputs": [
        {
          "internalType": "address",
          "name": "newImplementation",
          "type": "address"
        },
        {
          "internalType": "bytes",
          "name": "data",
          "type": "bytes"
        }
      ],
      "name": "upgradeToAndCall",
      "outputs": [],
      "stateMutability": "payable",
      "type": "function"
    },
    {
      "inputs": [
        {
          "internalType": "address",
          "name": "account",
          "type": "address"
        },
        {
          "internalType": "uint256",
          "name": "index",
          "type": "uint256"
        },
        {
          "internalType": "address",
          "name": "receiver",
          "type": "address"
        }
      ],
      "name": "withdrawFunds",
      "outputs": [],
      "stateMutability": "nonpayable",
      "type": "function"
    }
  ],
  "bytecode": "0x60a06040523060805234801561001457600080fd5b507ff0c57e16840df040f15088dc2f81fe391c3923bec73e23a9662efc9c229c6a00805468010000000000000000810460ff1615906001600160401b031660008115801561005f5750825b90506000826001600160401b0316600114801561007b5750303b155b905081158015610089575080155b156100a75760405163f92ee8a960e01b815260040160405180910390fd5b84546001600160401b031916600117855583156100d557845460ff60401b1916680100000000000000001785555b831561011b57845460ff60401b19168555604051600181527fc7f505b2f371ae2175ee4913f4499e1f2633a7b5936321eed1cdaeb6115181d29060200160405180910390a15b5050505050608051611d416200014a600039600081816110f901528181611122015261128c0152611d416000f3fe6080604052600436106100dd5760003560e01c8063735a6ae31161007f578063ad3cb1cc11610059578063ad3cb1cc1461023b578063bd555f4414610291578063c4d66de8146102b1578063f2fde38b146102d157600080fd5b8063735a6ae3146101a75780638a01a14f146101d45780638da5cb5b146101f457600080fd5b806352d1902d116100bb57806352d1902d1461014a578063533507551461015f578063674bb2fb1461017f578063715018a61461019257600080fd5b80632be707e1146100e257806347c6b45e146101155780634f1ef28614610137575b600080fd5b3480156100ee57600080fd5b506101026100fd3660046117ab565b6102f1565b6040519081526020015b60405180910390f35b34801561012157600080fd5b50610135610130366004611870565b610320565b005b6101356101453660046118b2565b610688565b34801561015657600080fd5b506101026106a7565b34801561016b57600080fd5b5061013561017a366004611916565b6106d6565b61013561018d366004611916565b610803565b34801561019e57600080fd5b50610135610a84565b3480156101b357600080fd5b506101c76101c2366004611916565b610a98565b60405161010c91906119a8565b3480156101e057600080fd5b506101356101ef366004611a2c565b610c1e565b34801561020057600080fd5b507f9016d09d72d40fdae2fd8ceac6b6234c7706214fd39c1cd1e609a0528c199300546040516001600160a01b03909116815260200161010c565b34801561024757600080fd5b506102846040518060400160405280600581526020017f352e302e3000000000000000000000000000000000000000000000000000000081525081565b60405161010c9190611ab4565b34801561029d57600080fd5b506101356102ac366004611916565b610d9e565b3480156102bd57600080fd5b506101356102cc366004611ac7565b610f57565b3480156102dd57600080fd5b506101356102ec366004611ac7565b6110ab565b6000808260400151116103065760001961031a565b8160200151826040015161031a9190611afa565b92915050565b6001600160a01b03831660009081526001602052604090205483908390811061035c576040516351b9ce0560e01b815260040160405180910390fd5b6001600160a01b038516600090815260016020526040812080548690811061038657610386611b0d565b90600052602060002090600702019050336001600160a01b0316866001600160a01b0316146103c8576040516349e27cff60e01b815260040160405180910390fd5b6001600682015460ff1660048111156103e3576103e3611992565b036104015760405163293b1c5160e01b815260040160405180910390fd5b6003600682015460ff16600481111561041c5761041c611992565b0361043a5760405163841296ab60e01b815260040160405180910390fd5b610544816040518060e001604052908160008201805461045990611b23565b80601f016020809104026020016040519081016040528092919081815260200182805461048590611b23565b80156104d25780601f106104a7576101008083540402835291602001916104d2565b820191906000526020600020905b8154815290600101906020018083116104b557829003601f168201915b50505091835250506001820154602082015260028201546040820152600382015460608201526004808301546080830152600583015460a0830152600683015460c09092019160ff169081111561052b5761052b611992565b600481111561053c5761053c611992565b9052506102f1565b421015610564576040516321bd81c960e11b815260040160405180910390fd5b60068101805460ff19166003179055600581015460048201546000916127109161058e9190611b5d565b6105989190611b74565b9050846001600160a01b03166108fc8284600401546105b79190611b96565b6040518115909202916000818181858888f193505050501580156105df573d6000803e3d6000fd5b506002546040516001600160a01b039091169082156108fc029083906000818181858888f1935050505015801561061a573d6000803e3d6000fd5b50336001600160a01b03167fb731f6b2b4dce5f6796d962acdf233f22a804c780911b1b8dfabfdf5c0f2ced5878385600401546106579190611b96565b6040805192835260208301919091526001600160a01b0389169082015260600160405180910390a250505050505050565b6106906110ee565b610699826111a5565b6106a382826111ad565b5050565b60006106b1611281565b507f360894a13ba1a3210667c828492db98dca3e2076cc3735a920a3ca505d382bbc90565b6001600160a01b038216600090815260016020526040902054829082908110610712576040516351b9ce0560e01b815260040160405180910390fd5b6001600160a01b038416600090815260016020526040812080548590811061073c5761073c611b0d565b90600052602060002090600702019050336001600160a01b0316856001600160a01b03161461077e576040516349e27cff60e01b815260040160405180910390fd5b6003600682015460ff16600481111561079957610799611992565b036107b75760405163841296ab60e01b815260040160405180910390fd5b60068101805460ff1916600417905560405184815233907f5d423f6a55211a90b8438786aa7edfa40d3eef381b6aae048b52daf814c16462906020015b60405180910390a25050505050565b6001600160a01b03821660009081526001602052604090205482908290811061083f576040516351b9ce0560e01b815260040160405180910390fd5b6001600160a01b038416600090815260016020526040812080548590811061086957610869611b0d565b90600052602060002090600702019050610983816040518060e001604052908160008201805461089890611b23565b80601f01602080910402602001604051908101604052809291908181526020018280546108c490611b23565b80156109115780601f106108e657610100808354040283529160200191610911565b820191906000526020600020905b8154815290600101906020018083116108f457829003601f168201915b50505091835250506001820154602082015260028201546040820152600382015460608201526004808301546080830152600583015460a0830152600683015460c09092019160ff169081111561096a5761096a611992565b600481111561097b5761097b611992565b9052506112ca565b6040516bffffffffffffffffffffffff1933606090811b8216602084015287901b16603482015260488101859052349060009081906068016040516020818303038152906040528051906020012060001c815260200190815260200160002060008282546109f19190611afa565b9250508190555034816004016000828254610a0c9190611afa565b90915550506003810154600482015410610a385760068101805460ff1916600290811790915542908201555b604080518581523460208201526001600160a01b0387169133917f758a71e4649ccef498bd46c04598c6eb5fc1ff801bfe94e759f068af269cb57d910160405180910390a35050505050565b610a8c611336565b610a966000611391565b565b610aa0611675565b6001600160a01b038316600090815260016020526040902054839083908110610adc576040516351b9ce0560e01b815260040160405180910390fd5b6001600160a01b0385166000908152600160205260409020805485908110610b0657610b06611b0d565b90600052602060002090600702016040518060e0016040529081600082018054610b2f90611b23565b80601f0160208091040260200160405190810160405280929190818152602001828054610b5b90611b23565b8015610ba85780601f10610b7d57610100808354040283529160200191610ba8565b820191906000526020600020905b815481529060010190602001808311610b8b57829003601f168201915b50505091835250506001820154602082015260028201546040820152600382015460608201526004808301546080830152600583015460a0830152600683015460c09092019160ff1690811115610c0157610c01611992565b6004811115610c1257610c12611992565b90525095945050505050565b612710811115610c41576040516358d620b360e01b815260040160405180910390fd5b336000908152600160209081526040918290208251610100601f89018490049093028101830190935260e0830187815290929182919089908990819085018382808284376000920182905250938552505050602082018790526040820181905260608201869052608082015260a0810184905260c001600190528154600181018355600092835260209092208151919260070201908190610ce29082611bf1565b506020820151816001015560408201518160020155606082015181600301556080820151816004015560a0820151816005015560c08201518160060160006101000a81548160ff02191690836004811115610d3f57610d3f611992565b021790555050336000818152600160208190526040909120549192507fb6aa30ae3316fff3c3e328e628c9efa9ee04042e265e3a56ac9aca8d074ef6dd91610d879190611b96565b87878787876040516107f496959493929190611cb1565b6001600160a01b038216600090815260016020526040902054829082908110610dda576040516351b9ce0560e01b815260040160405180910390fd5b6001600160a01b0384166000908152600160205260408120805485908110610e0457610e04611b0d565b90600052602060002090600702019050610e33816040518060e001604052908160008201805461089890611b23565b6040516bffffffffffffffffffffffff1933606090811b8216602084015287901b1660348201526048810185905260009060680160408051601f1981840301815291815281516020928301206000818152928390529082205490925090819003610eb05760405163558aca6760e11b815260040160405180910390fd5b6000828152602081905260408120819055600484018054839290610ed5908490611b96565b9091555050604051339082156108fc029083906000818181858888f19350505050158015610f07573d6000803e3d6000fd5b5060408051878152602081018390526001600160a01b0389169133917f1e835773dbabb99df13320228cba56f8dd844fbc11c5fef15b92e5cd6d0d7ad2910160405180910390a350505050505050565b7ff0c57e16840df040f15088dc2f81fe391c3923bec73e23a9662efc9c229c6a00805468010000000000000000810460ff16159067ffffffffffffffff16600081158015610fa25750825b905060008267ffffffffffffffff166001148015610fbf5750303b155b905081158015610fcd575080155b15610feb5760405163f92ee8a960e01b815260040160405180910390fd5b845467ffffffffffffffff19166001178555831561101f57845468ff00000000000000001916680100000000000000001785555b6002805473ffffffffffffffffffffffffffffffffffffffff19166001600160a01b0388161790556110503361140f565b611058611420565b83156110a357845468ff000000000000000019168555604051600181527fc7f505b2f371ae2175ee4913f4499e1f2633a7b5936321eed1cdaeb6115181d29060200160405180910390a15b505050505050565b6110b3611336565b6001600160a01b0381166110e257604051631e4fbdf760e01b8152600060048201526024015b60405180910390fd5b6110eb81611391565b50565b306001600160a01b037f000000000000000000000000000000000000000000000000000000000000000016148061118757507f00000000000000000000000000000000000000000000000000000000000000006001600160a01b031661117b7f360894a13ba1a3210667c828492db98dca3e2076cc3735a920a3ca505d382bbc546001600160a01b031690565b6001600160a01b031614155b15610a965760405163703e46dd60e11b815260040160405180910390fd5b6110eb611336565b816001600160a01b03166352d1902d6040518163ffffffff1660e01b8152600401602060405180830381865afa925050508015611207575060408051601f3d908101601f1916820190925261120491810190611cff565b60015b61122f57604051634c9c8ce360e01b81526001600160a01b03831660048201526024016110d9565b7f360894a13ba1a3210667c828492db98dca3e2076cc3735a920a3ca505d382bbc811461127257604051632a87526960e21b8152600481018290526024016110d9565b61127c8383611428565b505050565b306001600160a01b037f00000000000000000000000000000000000000000000000000000000000000001614610a965760405163703e46dd60e11b815260040160405180910390fd5b60038160c0015160048111156112e2576112e2611992565b036113005760405163841296ab60e01b815260040160405180910390fd5b60028160c00151600481111561131857611318611992565b036110eb576040516321bd81c960e11b815260040160405180910390fd5b336113687f9016d09d72d40fdae2fd8ceac6b6234c7706214fd39c1cd1e609a0528c199300546001600160a01b031690565b6001600160a01b031614610a965760405163118cdaa760e01b81523360048201526024016110d9565b7f9016d09d72d40fdae2fd8ceac6b6234c7706214fd39c1cd1e609a0528c199300805473ffffffffffffffffffffffffffffffffffffffff1981166001600160a01b03848116918217845560405192169182907f8be0079c531659141344cd1fd0a4f28419497f9722a3daafe3b4186f6b6457e090600090a3505050565b61141761147e565b6110eb816114cc565b610a9661147e565b611431826114d4565b6040516001600160a01b038316907fbc7cd75a20ee27fd9adebab32041f755214dbc6bffa90cc0225b39da2e5c2d3b90600090a28051156114765761127c8282611558565b6106a36115ce565b7ff0c57e16840df040f15088dc2f81fe391c3923bec73e23a9662efc9c229c6a005468010000000000000000900460ff16610a9657604051631afcd79f60e31b815260040160405180910390fd5b6110b361147e565b806001600160a01b03163b60000361150a57604051634c9c8ce360e01b81526001600160a01b03821660048201526024016110d9565b7f360894a13ba1a3210667c828492db98dca3e2076cc3735a920a3ca505d382bbc805473ffffffffffffffffffffffffffffffffffffffff19166001600160a01b0392909216919091179055565b6060600080846001600160a01b0316846040516115759190611d18565b600060405180830381855af49150503d80600081146115b0576040519150601f19603f3d011682016040523d82523d6000602084013e6115b5565b606091505b50915091506115c58583836115ed565b95945050505050565b3415610a965760405163b398979f60e01b815260040160405180910390fd5b606082611602576115fd8261164c565b611645565b815115801561161957506001600160a01b0384163b155b1561164257604051639996b31560e01b81526001600160a01b03851660048201526024016110d9565b50805b9392505050565b80511561165c5780518082602001fd5b60405163d6bda27560e01b815260040160405180910390fd5b6040518060e00160405280606081526020016000815260200160008152602001600081526020016000815260200160008152602001600060048111156116bd576116bd611992565b905290565b634e487b7160e01b600052604160045260246000fd5b60405160e0810167ffffffffffffffff811182821017156116fb576116fb6116c2565b60405290565b600067ffffffffffffffff8084111561171c5761171c6116c2565b604051601f8501601f19908116603f01168101908282118183101715611744576117446116c2565b8160405280935085815286868601111561175d57600080fd5b858560208301376000602087830101525050509392505050565b600082601f83011261178857600080fd5b61164583833560208501611701565b8035600581106117a657600080fd5b919050565b6000602082840312156117bd57600080fd5b813567ffffffffffffffff808211156117d557600080fd5b9083019060e082860312156117e957600080fd5b6117f16116d8565b82358281111561180057600080fd5b61180c87828601611777565b8252506020830135602082015260408301356040820152606083013560608201526080830135608082015260a083013560a082015261184d60c08401611797565b60c082015295945050505050565b6001600160a01b03811681146110eb57600080fd5b60008060006060848603121561188557600080fd5b83356118908161185b565b92506020840135915060408401356118a78161185b565b809150509250925092565b600080604083850312156118c557600080fd5b82356118d08161185b565b9150602083013567ffffffffffffffff8111156118ec57600080fd5b8301601f810185136118fd57600080fd5b61190c85823560208401611701565b9150509250929050565b6000806040838503121561192957600080fd5b82356119348161185b565b946020939093013593505050565b60005b8381101561195d578181015183820152602001611945565b50506000910152565b6000815180845261197e816020860160208601611942565b601f01601f19169290920160200192915050565b634e487b7160e01b600052602160045260246000fd5b602081526000825160e060208401526119c5610100840182611966565b9050602084015160408401526040840151606084015260608401516080840152608084015160a084015260a084015160c084015260c084015160058110611a1c57634e487b7160e01b600052602160045260246000fd5b60e0939093019290925250919050565b600080600080600060808688031215611a4457600080fd5b853567ffffffffffffffff80821115611a5c57600080fd5b818801915088601f830112611a7057600080fd5b813581811115611a7f57600080fd5b896020828501011115611a9157600080fd5b60209283019a909950918801359760408101359750606001359550909350505050565b6020815260006116456020830184611966565b600060208284031215611ad957600080fd5b81356116458161185b565b634e487b7160e01b600052601160045260246000fd5b8082018082111561031a5761031a611ae4565b634e487b7160e01b600052603260045260246000fd5b600181811c90821680611b3757607f821691505b602082108103611b5757634e487b7160e01b600052602260045260246000fd5b50919050565b808202811582820484141761031a5761031a611ae4565b600082611b9157634e487b7160e01b600052601260045260246000fd5b500490565b8181038181111561031a5761031a611ae4565b601f82111561127c576000816000526020600020601f850160051c81016020861015611bd25750805b601f850160051c820191505b818110156110a357828155600101611bde565b815167ffffffffffffffff811115611c0b57611c0b6116c2565b611c1f81611c198454611b23565b84611ba9565b602080601f831160018114611c545760008415611c3c5750858301515b600019600386901b1c1916600185901b1785556110a3565b600085815260208120601f198616915b82811015611c8357888601518255948401946001909101908401611c64565b5085821015611ca15787850151600019600388901b60f8161c191681555b5050505050600190811b01905550565b86815260a060208201528460a0820152848660c0830137600060c08683010152600060c0601f19601f8801168301019050846040830152836060830152826080830152979650505050505050565b600060208284031215611d1157600080fd5b5051919050565b60008251611d2a818460208701611942565b919091019291505056fea164736f6c6343000817000a",
  "linkReferences": {},
  "deployedLinkReferences": {}
}